:020000040800F2
:100000005022002001010008731100086B11000844
:100010006F1100082D0F00081F1D000800000000D0
:1000200000000000000000000000000011150008A2
:10003000310F000800000000E51100081516000847
:100040001B0100081B0100081B0100081B01000820
:100050001B0100081B0100081B0100081B01000810
:100060001B0100081B0100081B0100081B01000800
:100070001B0100081B0100081B0100081B010008F0
:100080001B0100081B0100081B0100081B010008E0
:100090001B0100081B0100081B0100081B010008D0
:1000A0001B0100081B0100081B0100081B010008C0
:1000B000051700081B0100081B0100081B010008B0
:1000C0001B0100081B0100081B0100081B010008A0
:1000D0001B010008211900081B010008451A00082F
:1000E0001B0100081B0100081B010008DFF80CD0F1
:1000F00000F05AFD00480047E92F00085022002078
:100100000648804706480047FEE7FEE7FEE7FEE7B1
:10011000FEE7FEE7FEE7FEE7FEE7FEE7A5160008BE
:10012000ED00000840EA01039B0703D009E008C97D
:10013000121F08C0042AFAD203E011F8013B00F8AC
:10014000013B521EF9D27047D2B201E000F8012BF8
:10015000491EFBD270470022F6E710B513460A4647
:1001600004461946FFF7F0FF204610BD421C10F868
:10017000011B0029FBD1801A7047034611F8012B9F
:1001800000F8012B002AF9D1184670470FB400B5CA
:100190008DB010A909900B9000914FF0FF300A909C
:1001A00000200C9005480690054807906A4609A86B
:1001B0000F9900F095FB0DB05DF814FBFD080008E9
:1001C0001B0900082DE9FF5F1D464FF0FF3BD5E9F5
:1001D000014691465F464FF00008A9697F1C0198CF
:1001E0008847296A824688470028F6D1BAF1FF3F3E
:1001F0000CD024F4C064002E19DD600614D5BAF1C9
:100200002B0F09D0BAF12D0F0ED103E0584604B0E0
:10021000BDE8F09F44F48064A9697F1C0198884779
:10022000761E8246002E02DDBAF1300F03D0B9F1FE
:10023000000F26D032E0A969761E44F400747F1CBA
:10024000019888478246002E05DDBAF1780F06D066
:10025000BAF1580F03D0B9F1000F10D01EE0B9F178
:10026000000F02D0B9F1100F18D1A969761E24F43D
:1002700000747F1C019888478246102002E0082005
:1002800000E00A20814609E008FB0908A969761EFA
:1002900044F400747F1C019888478246002E05DDD7
:1002A0004946504600F008FB0028EDDAE96901985C
:1002B0008847A00502D46FF00100A8E7E00725D128
:1002C000600613D5600502D5C8F1000000E0404685
:1002D00029680A1D2A600968220501D5087015E001
:1002E000220701D5088011E008600FE02868011D91
:1002F00029600068210502D580F8008006E021070A
:1003000002D5A0F8008001E0C0F8008038467EE702
:10031000F0B480EA0102D40F4200B2EB410F02D2E6
:100320000246084611464A0042D0C30DDDB2C1F371
:10033000C752AD1A202D35DAC1F3160141F400027F
:1003400004B15242C5F1200602FA06F12A411044D6
:10035000B3EBD05F23D0C4B1012DA0EBC35009DCB7
:10036000F0BC4FF0004202EAC352DBB200F50000DD
:1003700000F0EDBA400000F1807000EBC350A0F136
:10038000807040EAD170490009E0490841EAC07133
:10039000A0EBC35000F50000400800EBC350F0BCD8
:1003A00000F0CCBA6142012202EB4101001BF6E7EA
:1003B000F0BC704781F00041AAE780F00040A7E759
:1003C00080EA010210B502F00043400022D04A004A
:1003D0001FD0010E01EB1261C0F35600C2F35602AA
:1003E00040F4000042F40002A0FB022000047F3928
:1003F000140400D0401C50EA124001D44000491EB1
:10040000C2B20C0604EBD010401C4008802A02D077
:1004100003E0002010BD20F00100002900DA0020D8
:10042000184310BD2DE9FE4F804681EA0300C00F3E
:100430000C46009021F0004123F00045B8EB02008B
:10044000A94105D24046214690461C460B4602462D
:1004500023F00040104347D0270DC7F30A00C3F331
:100460000A510290401A019040286BDAC3F313003E
:1004700040F4801B0098924620B10023D2EB030A7F
:1004800063EB0B0B01985946C0F14002504600F057
:10049000E2F906460D4650465946019A00F0FAF92F
:1004A00010EB08006141002487EA115284EAE773E7
:1004B0001A4340D0009A62B3019A012A4FEA0752C8
:1004C00015DC001B61EB02014FF0004202EA07520B
:1004D000CDE90042001C41F5801132462B4600F068
:1004E00073FA03B0BDE8F08F40462146F9E7001BE0
:1004F00061EB0201001C41F5801300185B412018DC
:10050000A2F5001747EB030140EAD570B6196D411B
:1005100011E06D084FEA360645EAC0754FEA07520A
:10052000001B61EB0201001C41F5801149084FEAF4
:1005300030000019514132462B4603B0BDE8F04F60
:1005400000F033BA0098012240000023D0EB0202F1
:1005500063EBE073009821464FEAE074B8EB0000CB
:1005600061EB0401E9E783F000435BE781F00041C0
:1005700058E72DE9F04D81EA030404F0004B21F027
:10058000004514464FF0000A23F0004150EA0502EE
:1005900020D054EA01021DD0C5F30A570246C5F324
:1005A0001303C1F31300C1F30A5640F4801543F45A
:1005B0008013A7EB0608101BD64608F2FD3873EB34
:1005C000050002D308F1010801E092185B41B8F17F
:1005D000000F03DA00200146BDE8F08D00204FF443
:1005E0008011064684460EE0171B73EB050705D302
:1005F000121B63EB050306434CEA010C49084FEA62
:10060000300092185B4150EA0107EDD152EA030035
:1006100012D082EA040083EA0501084305D0101BCA
:10062000AB4106D20122002306E000224FF0004336
:1006300002E06FF0010253101AEB06004CEB085178
:1006400010EB0A0041EB0B01BDE8F04D00F0ADB935
:10065000C10F80EAE0700844CA079623002100F029
:1006600076B996230022114600F071B90EB5C10F7C
:1006700080EAE0700844CA07002140F233438DE865
:100680000E000A460B4600F09FF903B000BD0EB500
:1006900040F2334102910021CDE900110A460B4698
:1006A00000F092F903B000BD00F0004220F00040DD
:1006B000C10DC0F3160040F400007F2901DA0020CC
:1006C0007047962903DCC1F19601C84001E09639D4
:1006D0008840002AF4D04042704720F00040C10D0D
:1006E000C0F3160040F400007F2901DA00207047B3
:1006F000962903DCC1F19601C840704796398840BD
:10070000704770B5C1F30A5201F000450024C1F3EF
:10071000130140F2FF3341F480119A4201DA0020C4
:1007200070BD40F233439A42A2F2334203DC52429C
:1007300000F0A0F800E090402C43F1D0404270BDA2
:1007400000F0004230F000400AD0C10D01F56071A8
:10075000C0F3160042EA0151C20840071143704736
:1007600000200146704701F0004330B421F0004101
:1007700050EA010206D00A0DA2F56072C1F313011E
:10078000002A02DC30BC00207047440F44EAC10458
:10079000C100E01830BC00EBC25000F0CFB8000040
:1007A000002801DBC0F10040002901DBC1F100415C
:1007B00081427047002801DBC0F10040002901DBC5
:1007C000C1F100418842704730B50B460146002018
:1007D0002022012409E021FA02F59D4205D303FA03
:1007E00002F5491B04FA02F52844151EA2F1010284
:1007F000F1DC30BD2DE9F05F0546002092469B46B6
:1008000088460646814640241BE028464146474626
:10081000224600F02FF853465A46C01A914110D391
:1008200011461846224600F016F82D1A67EB01080B
:100830004F4622460120002100F00DF817EB000979
:100840004E41201EA4F10104DFDC484631462A4611
:100850004346BDE8F09F202A04DB203A00FA02F16B
:10086000002070479140C2F1200320FA03F319439E
:1008700090407047202A04DB203A21FA02F0002140
:10088000704721FA02F3D040C2F1200291400843A0
:1008900019467047202A06DBCB17203A41FA02F0AE
:1008A00043EAE07306E041FA02F3D040C2F12002CD
:1008B00091400843194670473A2800D2303820F05A
:1008C0002002412A01D3A2F13700884201D34FF020
:1008D000FF30704702681144137801601846704772
:1008E000D16004495161044911620021116111462E
:1008F00000F072B9D5080008CD0B0008426842B17B
:10090000016811F8013B23B1521EC0E900121846DC
:1009100070470121C160881E704742685AB1C368A0
:10092000016843B983688B4205D0491E521CC0E957
:100930000012002070474FF0FF3070470029A8BF19
:100940007047401C490008BF20F00100704710B4F8
:10095000B0FA80FC00FA0CF050EA010404BF10BCAD
:10096000704749B1CCF1200421FA04F411FA0CF1DA
:1009700018BF012121430843A3EB0C01CB1D4FEA13
:1009800000614FEA102042BF002010BC704700EB0E
:10099000C35010440029A4BF10BC7047401C49003C
:1009A00008BF20F0010010BC704710B5141E73F191
:1009B000000408DA401C41F1000192185B411A431F
:1009C00001D120F0010010BD2DE9F04D92469B466B
:1009D00011B1B1FA81F202E0B0FA80F22032904611
:1009E000FFF739FF04460F4640EA0A0041EA0B01CF
:1009F00053465A46084313D0114653EA010019D012
:100A0000C8F140025046FFF735FF05460E465046F6
:100A100059464246FFF71FFF084305D0012004E076
:100A200020463946BDE8F08D0020054346EAE076D1
:100A30002C4337430A986305E40AA0EB0800002220
:100A4000FD0A44EA47540A3002D500200146E9E78E
:100A5000010510196941DDE9084500196941BDE842
:100A6000F04DA2E72DE9FE4F81EA030404F00044B3
:100A700021F0004100944FF0000B23F0004350EAB6
:100A800001045ED052EA03045BD0C3F30A54C1F3FD
:100A90000A552C44A4F2F3340194A0FB0254C1F390
:100AA000130141F48011C3F3130343F4801301FBDA
:100AB000024400FB034E840A970A44EA815447EA41
:100AC0008357A4FB076802958D0A05FB07854FEA4B
:100AD000932C04FB0C542705029D4FEA065847EA65
:100AE0001637B5EB08056EEB070C870E920E47EA3A
:100AF000811742EA8312A7FB0201B6EB0B0164EBFC
:100B000000042B0D43EA0C335E1844EB1C50DA460C
:100B10005146E7FB0201C5F313044FEA0B3343EAE6
:100B200014534FEA0432019C43EA0603A4F10C0477
:100B30000294009CCDE900B4FFF746FF03B0BDE886
:100B4000F08F00200146F9E7C1F30A52C1F3130107
:100B500040F2FF3341F480119A4202DA002001464C
:100B6000704740F233439A42A2F2334202DC5242CF
:100B7000FFF780BEFFF76FBE30B5041E71F10004B1
:100B800004DB4FF00044404264EB0101141E73F19A
:100B9000000405DB1C464FF00043524263EB0403A4
:100BA000994208BF904230BD064C074D06E0E06810
:100BB00040F0010394E8070098471034AC42F6D3A4
:100BC000FFF798FA1849000838490008C0B24FF4F6
:100BD000F05100F097B900002DE9F34F8BB04FF0C2
:100BE000000801F10C000C464FF0010B46460DF1D8
:100BF000080A01906269012101989047051E2DD0D5
:100C0000252D2CD0216A8847C0B162690121019845
:100C10009047216A88470028F7D1411E62690198F0
:100C2000904700E0761CA1690B988847216A8847A5
:100C30000028F7D1E1690B988847DBE7A1690B9899
:100C400088470746A84201D1761CD3E7E1690B9893
:100C500088477F1C02D1B8F1000F6FD046E1002712
:100C600062693D463946019890472A2804D1626955
:100C70000121019890470125DFF8849262690121E2
:100C800001989047A0F130010A290AD24F45E5DCCE
:100C900007EB870100EB4107303FDFD445F010053B
:100CA000ECE7E90601D46FF000476C280AD04C2825
:100CB00014D0682815D06A280DD074281CD07A2842
:100CC0001AD01DE062690121019890476C2802D07A
:100CD00045F0040514E045F002050DE045F020055F
:100CE0000AE06269012101989047682802D045F026
:100CF000080505E045F40065626901210198904707
:100D0000C4E9015765283DD019DC58287AD00CDC9D
:100D1000452837D004DC252826D0412831D131E0C0
:100D200046282FD047282CD12CE05B2877D061288B
:100D300028D063287CD0642823D15AE0D0E06F28E3
:100D400048D008DC66281DD067281BD0692821D030
:100D50006E2816D127E0702845D0732868D07528F2
:100D600047D078280DD14DE0A1690B9888470546FA
:100D700025283FF469AFE1690B9888476D1C3FF463
:100D80006AAFB3E023466A466FF001000B99AFF3F8
:100D900000809EE045F040006060A80723464FF0C9
:100DA000000236D43EE0E8077FF447AF2068011D1B
:100DB00021600068290501D506701BE7290701D5C8
:100DC000068017E7A90703D5F117C0E9006111E70D
:100DD00006600FE745F040006060A80723464FF02B
:100DE000080216D41EE040F60E0125EA01006060FC
:100DF00016E045F040006060A80723464FF00A0265
:100E000007D40FE045F040006060A80708D52346EE
:100E100010226FF001000B99AFF3008059E007E05A
:100E2000234610226FF001000B99FFF7CBF950E039
:100E30004FF000094F464B46632802D05B2806D08E
:100E400040E0E80601D40120A06001273AE0626991
:100E50000121019890475E2805D14FF00109626990
:100E6000494601989047216939B900210A465346FD
:100E700043F82120491C0829FADBB0B3216969B97C
:100E8000C11700EBD16253110AEB830122F01F025C
:100E9000821A01200B68904003430B6062690121B4
:100EA000019890475D28E8D1B9F1000F09D00020E2
:100EB000514651F82020D24341F82020401C0828F8
:100EC000F7DB02AB224600976FF001000B99AFF3FE
:100ED000008000280CDA401C08D1BBF1000F05D0BF
:100EE0004FF0FF300DB0BDE8F08FFFE74046F9E767
:100EF000E90701D108F1010806444FF0000B79E63B
:100F0000CCCCCC0C7F2801D9002208E0064A02EBA9
:100F10005002C007127800D1120902F00F0201201E
:100F200090400840704700004C44000800BFFEE7B6
:100F3000704770B5044602F087F8054607E002F0F6
:100F400083F8A84203D2C5F1FF30241A002502F02D
:100F50007BF8401BA042F2D370BD002105E00A21BE
:100F600000BF0A1EA1F10101FBD1021EA0F1010088
:100F7000F5D1704701460020034A106800F03800A0
:100F80000843106070470000002002402DE9F04146
:100F9000024600250026002000230024002791F8A7
:100FA00003C00CF00F0591F803C00CF0100CBCF15D
:100FB000000F03D091F802C04CEA050591F800C07B
:100FC000BCF1000F31D0146800202BE04FF0010C71
:100FD0000CFA00F3B1F800C00CEA03069E4220D1DF
:100FE00083004FF00F0C0CFA03F7BC4305FA03FC27
:100FF0004CEA040491F803C0BCF1280F06D14FF06D
:10100000010C0CFA00FCC2F814C00AE091F803C00D
:10101000BCF1480F05D14FF0010C0CFA00FCC2F8EE
:1010200010C0401C0828D1D31460B1F800C0BCF136
:10103000FF0F34DD546800202EE000F1080C4FF063
:10104000010808FA0CF3B1F800C00CEA03069E424E
:1010500021D183004FF00F0C0CFA03F7BC4305FAC3
:1010600003FC4CEA040491F803C0BCF1280F05D13D
:1010700000F1080C08FA0CF8C2F8148091F803C0CB
:10108000BCF1480F07D100F1080C4FF0010808FA35
:101090000CF8C2F81080401C0828CED35460BDE87C
:1010A000F0810000F0B50A4600230024002100254D
:1010B00000F00046B6F1004F02D11D4EF16901E08B
:1010C0001B4E7168C0F3034583B200F44016B6F5B9
:1010D000401F08D121F07061154E766826F07066C9
:1010E000134F7E6012E000F48016B6F5801F06D123
:1010F000032606FA05F4A14341F0706106E0460DAF
:10110000360103FA06F6B14341F0706122B1460D93
:10111000360103FA06F6314300F00046B6F1004FFF
:1011200002D1034EF16101E0014E7160F0BD00009B
:10113000000001400246002093680B400BB10120E3
:1011400000E00020704702460020D3680B400BB13E
:10115000012000E000207047416170470161704745
:101160000AB1016100E04161704700BFFEE700BFC6
:10117000FEE7704770B5002100230F22C47804B346
:10118000154C246804F4E064C4F5E064210AC1F15C
:101190000403CA40447804FA03F1847814402143DC
:1011A00009010E4C0678A155047804F01F050124AE
:1011B000AC4005786D11AD0005F1E025C5F80041A2
:1011C00009E0047804F01F050124AC40044D0678C2
:1011D000761145F8264070BD0CED00E000E400E01B
:1011E00080E100E07047000029B1064AD26902435D
:1011F000044BDA6104E0034AD2698243014BDA61AD
:10120000704700000010024029B1064A926902436B
:10121000044B9A6104E0034A92698243014B9A614C
:1012200070470000001002400F48006840F00100C5
:101230000D490860084640680C4908400A49486062
:10124000084600680A4908400749086008460068DF
:1012500020F4802008600846406820F4FE004860C2
:101260004FF41F0088607047001002400000FFF834
:10127000FFFFF6FE30B500210022002400232D4D93
:101280006D6805F00C0121B1042905D0082923D18E
:1012900005E0294D056022E0274D05601FE0254D42
:1012A0006D6805F47012234D6D6805F480340225D5
:1012B00005EB92421CB9214D554305600BE01D4DD5
:1012C0006D6805F400351DB11C4D5543056002E005
:1012D000194D5543056002E0174D056000BF00BF82
:1012E000144D6D6805F0F0010909154D6B5C05683A
:1012F000DD4045600F4D6D6805F4E061090A104D51
:101300006B5C4568DD4085600A4D6D6805F4605191
:10131000C90A0B4D6B5C4568DD40C560054D6D68C5
:1013200005F44041890B074D6B5CC568B5FBF3F5CF
:10133000056130BD0010024000127A0000093D0036
:10134000140000202400002010B5014600220023D4
:1013500000204A11012A02D1094C236806E0022A22
:1013600002D1074C236A01E0054C636A01F01F02B9
:10137000012494401C400CB1012000E0002010BD6D
:10138000001002400248406800F00C007047000066
:101390000010024001460020034A506820F0F0008F
:1013A000084350607047000000100240114909686E
:1013B00021F480310F4A11601146096821F480211F
:1013C0001160B0F5803F03D0B0F5802F0ED106E05C
:1013D0000849096841F48031064A116007E005496F
:1013E000096841F4A021034A116000E000BF00BF7A
:1013F000704700000010024001460020034A506878
:1014000020F4E06008435060704700000010024084
:1014100001460020034A506820F4605040EAC100B1
:101420005060704700100240014908667047000094
:101430000000424202460020044B586820F47C1011
:1014400042EA01031843014B586070470010024004
:1014500001460020034A506820F003000843506012
:10146000704700000010024038B5002000900024B2
:10147000002500BF3120FFF767FF05460098401C9C
:1014800000900098B0F5A06F01D0002DF2D031206F
:10149000FFF75AFF08B1012400E00024204638BDC0
:1014A00021B1028842F04002028004E002884FF637
:1014B000BF731A40028070470246002013890B4018
:1014C0000BB1012000E00020704701468889704779
:1014D0008181704710B50022028802F441520B88C6
:1014E0004C8823438C882343CC8823430C89234393
:1014F0004C8923438C892343CC8923431A4302809C
:10150000838B4FF2FF74234083830B8A038210BDC9
:101510007047000010B501210D20FFF775FE012175
:101520000148FFF7BFFD10BD0004300010B500F00A
:1015300001F810BD0CB50020019000903348006800
:1015400040F480303149086000BF3048006800F442
:10155000003000900198401C0190009818B9019843
:10156000B0F5A06FF1D12948006800F4003010B147
:101570000120009001E0002000900098012843D154
:101580002348006840F010002149086008460068C0
:1015900020F0030008600846006840F00200086080
:1015A0001A4840681949486008464068486008463B
:1015B000406840F4806048600846406820F47C1031
:1015C00048600846406840F4E810486008460068F3
:1015D00040F08070086000BF0C48006800F00070A8
:1015E0000028F9D00948406820F003000749486006
:1015F0000846406840F00200486000BF0348406869
:1016000000F00C000828F9D10CBD000000100240C9
:101610000020024010B509480068401C07490860D6
:1016200007480068401C06490860084600680A2808
:1016300003D30020086001F0CDFB10BD280000207E
:101640002C00002030B5144800684FF47A72B0FBCB
:10165000F2F1B1F1807F00D31DE021F07F40401E08
:101660004FF0E022506150170F22002807DA1307CD
:101670001D0E0A4B00F00F04241F1D5503E0130735
:101680001C0E074B1C5400BF00204FF0E02290615D
:101690000720106100BF30BD0000002018ED00E001
:1016A00000E400E010B51348006840F00100114963
:1016B000086008464068104908400E4948600846DE
:1016C00000680E4908400B4908600846006820F48D
:1016D000802008600846406820F4FE0048604FF40F
:1016E0001F008860FFF722FF4FF000600449086088
:1016F00010BD0000001002400000FFF8FFFFF6FEE2
:1017000008ED00E010B50121880700F09DF80028E1
:1017100045D00121880700F088F821480078082882
:1017200002D100201E4908701E480078B0B91C493B
:10173000097801EB41011C4A02EB81014868FEF780
:10174000CCFF4FF08041888501211548007802F0D8
:10175000BBFB1348007802F0F1FA18E01049097851
:1017600001EB4101104A02EB81014868FEF7B5FF29
:1017700040F6C4110C1A09078C850021084800782E
:1017800002F0A2FB06480078401C05490870054895
:10179000007808B9012000E000200249087010BD5F
:1017A0003100002030000020341500207FB50546B0
:1017B0000C4601210846FFF717FDADF80850ADF8BB
:1017C00004400020ADF80A00ADF8060001A94FF072
:1017D000804000F053F800214FF0804000F019F8ED
:1017E00001221146900700F040F81C208DF80000FF
:1017F00000208DF8010003208DF8020001208DF8F3
:1018000003006846FFF7B6FC0121880700F010F8D6
:101810007FBD21B1028842F08002028004E002888C
:101820004FF67F731A4002807047CA4302827047A6
:1018300021B1028842F00102028004E002884FF6E2
:10184000FE731A400280704730B502460020002324
:101850000024158A05EA0103958905EA010413B1FC
:101860000CB1012000E0002030BD1AB183890B4388
:10187000838102E083898B43838170470022028841
:101880001D4B98420ED01D4B98420BD0B0F1804FAB
:1018900008D01B4B984205D01A4B984202D01A4BE5
:1018A000984204D14FF68F731A404B881A43174B56
:1018B000984207D0164B984204D04FF6FF431A4087
:1018C000CB881A4302808B8883850B8803850A4B5B
:1018D00098420BD0094B984208D00E4B984205D045
:1018E0000D4B984202D00D4B984201D10B7A0386E2
:1018F0000123838270470000002C01400034014026
:101900000004004000080040000C004000100040AF
:1019100000140040004001400044014000480140E4
:1019200010B540F22551424800F052F901287CD10F
:1019300040F225513E4800F01FF93D4800F0E6F91D
:10194000C4B23C48008800B110BD3C2C06D1042034
:10195000394908700020394908801CE03648007871
:10196000C8B9242C03D101203349087010E0232C7E
:1019700003D10220304908700AE07B2C03D10320F8
:101980002D49087004E03C2C02D104202A4908703B
:1019900000202A490880294801880088401C274ADD
:1019A00010802748445424480078042809D13E2C4C
:1019B00007D1002022491288885401201D4908803F
:1019C0002BE01D48007801280AD1212C08D10020E5
:1019D0001B491A4A128888540120164908801CE0C5
:1019E0001548007802280AD1212C08D1002114487A
:1019F000124A1288815401200E4908800DE00E48D9
:101A00000078032809D17D2C07D100200C490B4A0E
:101A10001288885401200749088008480088B0F5DA
:101A2000806F02DB00200549088000BF8CE70000C2
:101A3000003801403A0000203C0000203E00002019
:101A40000C01002010B540F22551454800F0C0F8C7
:101A500001287DD140F22551414800F08DF84048E1
:101A600000F054F9C4B221463E4800F054F93E4813
:101A7000008800B110BD3C2C06D104203B49087001
:101A800000203B4908801CE038480078C8B9242C65
:101A900003D101203549087010E0232C03D1022026
:101AA000324908700AE07B2C03D103202F490870CB
:101AB00004E03C2C02D104202C49087000202C4961
:101AC00008802B4801880088401C294A108029483A
:101AD000445426480078042809D13E2C07D1002020
:101AE00024491288885401201F4908802BE01F4890
:101AF000007801280AD1212C08D100201D491C4A58
:101B0000128888540120184908801CE01748007882
:101B100002280AD1212C08D100211648144A128823
:101B200081540120104908800DE0104800780328F6
:101B300009D17D2C07D100200E490D4A1288885406
:101B40000120094908800A480088B0F5806F00E04C
:101B500003E002DB00200649088000BF8AE700009E
:101B600000480040003801403A0000203C000020BE
:101B7000400000200C01002010B50022002340F698
:101B80006A14A14200D100BF0A1201249440A3B2FA
:101B9000DC43048010BD10B502460020108A4FF2CD
:101BA000FF0318400B884C8823438C882343CC8840
:101BB00023431843108210BD21B1828942F40052A0
:101BC000828104E082894DF6FF731A40828170475A
:101BD00002460020B1F5007F00D100BF13880B4002
:101BE0000BB1012000E000207047F0B5034600244F
:101BF00000260025002040F66A17B94200D100BF38
:101C00001846C1F3421401F01F06012707FA06F532
:101C1000012C01D10C3004E0022C01D1103000E085
:101C200014301AB107682F43076002E00768AF431A
:101C30000760F0BD2DE9F04786B005460E4600244A
:101C4000A24600BFA1460027B08900B100BF2F46C1
:101C50002C8A4CF6FF700440F08804432C82AC8937
:101C60004EF6F3100440B088318908437189084367
:101C70000443AC81AC8A4FF6FF400440B089044372
:101C8000AC8201A8FFF7F6FA1F48874202D1DDF8BF
:101C900010A001E0DDF80CA0A88900F4004040B1DC
:101CA0000AEBCA0000EB0A1031684900B0FBF1F8FA
:101CB00007E00AEBCA0000EB0A1031688900B0FBAC
:101CC000F1F86420B8FBF0F004012009642101FB65
:101CD0001089A88900F4004040B1322000EBC9000F
:101CE000B0FBF1F000F00700044308E0322000EB05
:101CF00009106421B0FBF1F000F00F0004432C81C7
:101D000006B0BDE8F0870000003801400146888831
:101D1000C0F308007047C1F308028280704700BF1B
:101D2000FEE7000010B586B00446012144F204002D
:101D3000FFF76AFA4FF40070ADF8040018208DF830
:101D4000070003208DF8060001A92148FFF71EF9BE
:101D50004FF48060ADF8040004208DF807000320E4
:101D60008DF8060001A91A48FFF710F90294002027
:101D7000ADF80C00ADF80E00ADF81000ADF8140091
:101D80000C20ADF8120002A91248FFF753FF2520DE
:101D90008DF8000001208DF8010000208DF8020070
:101DA00001208DF803006846FFF7E4F9012240F2B4
:101DB00025510848FFF719FF002240F22771054816
:101DC000FFF713FF01210348FFF7F6FE06B010BD31
:101DD000000801400038014010B588B004460121D8
:101DE0000820FFF711FA01218804FFF7FDF94FF4ED
:101DF0008060ADF81C0018208DF81F0003208DF8BE
:101E00001E0007A92948FFF7C1F84FF40060ADF89C
:101E10001C0004208DF81F0003208DF81E0007A968
:101E20002248FFF7B3F80020ADF80400ADF8060033
:101E30004FF40070ADF808000020ADF80A0001A9C9
:101E40001B48FFF7A8FE03940020ADF81000ADF882
:101E50001200ADF81400ADF818000C20ADF8160013
:101E600003A91348FFF7E6FE27208DF800000120A4
:101E70008DF8010002208DF8020001208DF803008A
:101E80006846FFF777F9012240F225510848FFF72D
:101E9000ACFE002240F227710548FFF7A6FE0121A3
:101EA0000348FFF789FE08B010BD0000000C014098
:101EB000004800400FB430B5CBB0054601AC50A887
:101EC00000904FF4947101A8009B4F9A00F048F8DD
:101ED000002000900BE014F8011B2846FFF71BFFC1
:101EE00000BF40212846FFF773FE0028F9D0207874
:101EF0000028F0D14BB030BC5DF814FB70B505463E
:101F00000C4604E014F8011B284602F078FA207809
:101F10000028F7D170BD00000FB4054B10B503A920
:101F2000044A029800F0F0F810BC5DF814FB0000C1
:101F3000152D0008080100200FB4084B10B504A9A6
:101F400002AA039800F0E0F8044602A9002000F07D
:101F50007DFC204610BC5DF814FB00004D280008F5
:101F60007CB5491E1C461546CDE90001044B6A4666
:101F70002146284600F0C8F8009A002111707CBD67
:101F80003728000802E008C8121F08C1002AFAD149
:101F900070477047002001E001C1121F002AFBD1E9
:101FA000704700002DE9FF5FDDE90220010DDDF83B
:101FB00038B0024318D044F61050A1F2FF3141432B
:101FC0000D140F98012820D0A5EB0B00401C5FEAF0
:101FD000000A4FF00004474EDFF81C91A04650461F
:101FE00016D5CAF1000728E00F98012443A2012862
:101FF00008D0002100980F9BC0E90021C0E90243EE
:10200000BDE8FF9F6FEA0B01F4E7CBF10000DEE7CC
:10201000074612E0F80707D02246334640464946B5
:10202000FEF720FD80468946224633461046194673
:10203000FEF718FD04460E467F10002FEAD1DDE9B9
:102040000201BAF1000F42464B4602DAFEF70AFDE2
:1020500001E0FEF78EFA04460E460022284BFEF7FA
:102060008BFD03D84FF0FF30014607E00022254BDF
:1020700020463146FEF7D6F9FEF766FD102409E04A
:10208000002C0ADB0A220023FEF7B4FB019B30324E
:102090001A55641E50EA0102F2D1641C019AC4F17F
:1020A000110314440F9A012A03D0012208430DD1D1
:1020B0000AE0084304D000204FF0110B0F9080E796
:1020C000A3EB0B056D1E0DE05B4504DD4FF0000238
:1020D00005F1010504E003DA4FF00002A5F1010566
:1020E000002AECD000980F99C0E90231C0E9004500
:1020F00086E70000000024400000F03F30000000B0
:102100000000F0430000E03F2DE9FF4F95B09B46F3
:102110008946064600250FE2252877D10024274668
:10212000F84A0121059400E0044316F8013F203BE2
:1021300001FA03F01042F7D130782A2811D06FF05D
:102140002F033078A0F13002092A16D8059A44F0FE
:10215000020402EB820203EB42021044761C05905B
:10216000EFE759F8042B0592002A03DA504244F4B1
:102170000054059044F00204761C30782E2816D1C5
:1021800016F8010F44F004042A280DD06FF02F0236
:102190003078A0F13003092B09D807EB870302EB55
:1021A0004303C718761CF3E759F8047B761C307894
:1021B0006C280FD006DC4C2817D068280DD06A2870
:1021C00014D104E0742810D07A280FD10DE044F423
:1021D00000140AE044F4801401E044F440147278DE
:1021E000824202D104F58014761C761C3078662871
:1021F0000BD013DC582877D009DC002875D045288F
:10220000F6D04628F4D047281AD19DE118E063287B
:1022100035D0642879D0652812D195E1702873D023
:1022200008DC6728F1D069286FD06E280DD06F28A0
:1022300006D1B5E073282CD0752875D0782874D0D5
:102240005A46179990476D1C75E1C4F30250022855
:1022500009D003280DD0D9F8001004280DD00D6046
:1022600009F1040967E1D9F80010EA17C1E9005241
:10227000F6E7D9F800100D80F2E70D70F0E719F8D5
:10228000041B8DF8001000208DF80100EA460120A3
:1022900003E059F804AB4FF0FF3061074FF0000145
:1022A00002D40DE008F101018846B9420FDA8045F9
:1022B000F8DB1AF808100029F4D108E008F1010150
:1022C00088468142FADB1AF808100029F6D10598F1
:1022D0005B46A0EB080721463846179A00F094FAAF
:1022E000284400EB080507E04DE029E10DE01AF86D
:1022F000010B5A4617999047B8F10108F7D25B468F
:1023000021463846179A13E142E00A220092C4F3AC
:1023100002524FF0000A022A08D059F804CB032ACF
:102320004FEAEC710AD00DE029E02AE009F107013B
:1023300021F00702F2E802C1914609E00FFA8CFC95
:102340004FEAEC71042A03D14FFA8CFC4FEAEC718E
:10235000002907DA0A460021DCF1000C61EB0201DA
:102360002D2202E0220504D52B228DF80420012223
:1023700003E0E20701D02022F7E7904659E00A2166
:1023800002E010220DE010214FF0000A00910BE056
:1023900010224FF0000A44F004040827009203E0E2
:1023A00008224FF0000A0092C4F30252022A05D01C
:1023B00059F804CB0021032A08D009E009F10701EC
:1023C00021F00702F2E802C1914605E01FFA8CFCF9
:1023D000042A01D10CF0FF0C4FF00008220728D589
:1023E000702806D0009B83F0100353EA0A0305D03F
:1023F0000EE040228DF80420012208E05CEA010290
:1024000006D030228DF804208DF805000222904677
:10241000009B83F0080353EA0A030AD15CEA010235
:1024200001D1620705D530228DF804204FF0010854
:102430007F1E582804D034A003900EA802900DE00F
:1024400036A0F9E753466046009AFEF7D3F9844672
:102450000398825C0298401E029002705CEA0100C0
:10246000F0D1029806A9081A00F1200A600702D5E7
:1024700024F4803400E00127574502DDA7EB0A0071
:1024800000E0002000EB0A01009005984144401A4A
:102490000590E00306D45B462146179A059800F0A4
:1024A000B3F90544002706E001A85A46C05D179914
:1024B00090476D1C7F1C4745F6DBE0030CD55B465F
:1024C0002146179A059800F09FF9054404E0302052
:1024D0005A46179990476D1C0099481E0090002994
:1024E000F5DC08E0029802995A460078491C0291EE
:1024F000179990476D1CBAF10001AAF1010AF1DCAD
:1025000065E10000092801003031323334353637B7
:10251000383961626364656600000000303132332F
:1025200034353637383941424344454600000000CF
:1025300000F058F90544761C307800287FF4ECADA3
:1025400019B02846BDE8F08F620700D4062709F1CC
:10255000070222F0070CFCE80223E14603F00048E2
:102560005FEA080C02D00FF2702C0DE05FEA045C09
:1025700002D50FF2682C07E05FEAC47C02D00FF2AC
:10258000602C01E0AFF2700C4FF0FF3823F00043F5
:10259000CDF850C065280CD006DC452809D0462867
:1025A0001DD047283DD13DE0662818D067287ED150
:1025B00038E00021112F01DB112000E0781CCDE96B
:1025C000000106A90EA8FFF7EDFCDDE90F010E9A48
:1025D00003910021009207F1010A04914DE04FF0B0
:1025E00000400097CDE9011006A90EA8FFF7DAFC1C
:1025F000DDE90F0203920E9B11990022DDF80CA079
:102600000093049211B9791C00EB010AB7EB0A00A0
:1026100004D4C0F1FF3007F1010A0490AAEB0700CF
:10262000019044E0012F00DA01270021112F01DD84
:10263000112000E03846CDE9000106A90EA8FFF7F9
:10264000B1FCDDE90F010E9A039100210491009283
:10265000BA4621070CD40399514500DA8A46BAF1EB
:10266000010F05DD009AAAF10101515C302908D063
:10267000B84202DA10F1040F06DA0121CDE90110A7
:1026800015E0AAF10101E9E7002805DC04990144FD
:102690000491AAEB000102E0411C514500DD8A468D
:1026A0000499401A401C01904FF00040029020070E
:1026B00004D40198504501DBCDF8048000208DF84A
:1026C0004F0002980DF14F07B0F1004F25D02B209D
:1026D0000E9002984FF0020800280CDA4042029057
:1026E0002D200E9007E00A210298FEF76DF8303198
:1026F000029007F8011DB8F10001A8F10108F2DC11
:1027000002980028EFD1791E0E980870307800F0FA
:10271000200040F0450007F8020D12A8C01B00F190
:1027200007081498007800B1012000EB0A01019815
:1027300001EBE07105984144401A401E0590E0030A
:1027400006D45B462146179A059800F05DF80544CB
:102750001498007818B15A46179990476D1CE003F9
:1027600024D55B462146179A059800F04DF805449C
:102770001CE00498002807DBDDE90301884203DD43
:102780000098405C179901E0179930205A4690470D
:10279000049805F10105401C04900198401E019029
:1027A00004D12E205A46179990476D1CBAF10001AA
:1027B000AAF1010ADDDC05E017F8010B5A4617996A
:1027C00090476D1CB8F10001A8F10108F4DC5B46EC
:1027D0002146179A0598ABE62D0000002B0000005B
:1027E000200000002DE9F041044600251E46174652
:1027F000880404D405E039462020B0476D1C641ECF
:10280000F9D52846BDE8F0812DE9F04104460025C0
:102810001E469046C80301D5302700E020278804D3
:1028200004D505E041463846B0476D1C641EF9D515
:102830002846BDE8F0814A68002A06D00A68531C81
:102840000B6010704868401E486070470A68531C4F
:102850000B601070704710B5044600212046FDF74C
:10286000A9FF01D2204610BD84F00040FBE7000024
:1028700010B500F023FB00F04FF900F08DFA4FF493
:1028800000510448FEF76AFC20210248FEF764FC70
:1028900010BD0000000C014070B5234800780028EE
:1028A00028D02148007801281DD101F0E9FB00243F
:1028B0000025002001F058FC0446601CC4B26D1CC9
:1028C0002A46214619A0FFF727FB002001F058FBFC
:1028D0000021204601F0A0FC00201349087017A039
:1028E000FFF71AFB06E010480078022802D118A072
:1028F000FFF712FB1B480078A0B11A4800780128A6
:1029000009D1002001F0BCFB00201649087016A078
:10291000FFF702FB06E013480078022802D117A057
:10292000FFF7FAFA70BD00003200002061203D2060
:1029300025642062203D2025640D0A006B657931F5
:102940005F7072657373696E67203D20310D0A00F8
:102950006B6579315F7072657373696E67203D20B6
:10296000320D0A00330000206B6579325F707265AA
:102970007373696E67203D20310D0A006B657932F3
:102980005F7072657373696E67203D20320D0A00B7
:1029900010B500F059FB0D490968401AB0F57A7F6F
:1029A00000D210BD00F050FB084908604FF4005100
:1029B0000748FEF7C8FBC0F10100C4B222464FF43D
:1029C00000510348FEF7CCFB00BFEAE748000020B7
:1029D000000C014010B500F0F3FF10BD10B500F081
:1029E00033FB13490968401A322800D210BD00F0A9
:1029F0002BFB0F49086001F061F80E4800780E4982
:102A0000C978884205D10B4840780B49097988423A
:102A10000BD009484178C01C00F046FE0648C0783B
:102A20000449087004480079487000BFDEE70000E0
:102A3000FC000020F80000209415002010B50024B0
:102A400019E020210D48FEF789FB4FF400510B4897
:102A5000FEF782FB6420FEF76CFA20210748FEF7A0
:102A60007BFB4FF400510548FEF778FB6420FEF72E
:102A700060FA601CC4B2032CE3DB10BD000C014003
:102A800010B54FF4E130FFF74DF94FF4E130FFF7A7
:102A9000A3F902A10748FFF70DFA10BD7561727422
:102AA0006C335F696E697420737563636565640D6B
:102AB0000A0000000038014010B51448008818B31F
:102AC00013480078012803D1124800F02DFC16E0CD
:102AD0000F480078022803D10E4800F0BBFA0EE040
:102AE0000B480078032803D10A4800F0B3FA06E047
:102AF00007480078042802D1064801F071F8002048
:102B0000034908700149088010BD00003A00002008
:102B10003C0000200C01002008B501210820FEF730
:102B200073FB2020ADF8000010208DF80300032077
:102B30008DF8020069460448FEF728FA2021024871
:102B4000FEF70CFB08BD0000000C014070B5044608
:102B50000D4600260EE020210848FEF7FFFA284621
:102B6000FEF7E7F920210548FEF7F6FA2846FEF7BA
:102B7000E0F9761CA642EEDB70BD0000000C0140BF
:102B800010B50446012001F07BFA0A20FEF7D1F9C6
:102B90004FF480610A48FDF7DEFA21024FF480729B
:102BA000074801F09DFA064800F0C2F805490860A0
:102BB000034800F04FFA002001F062FA10BD000057
:102BC0000C010020680000202DE9FF4704468946DB
:102BD0009246082C01DBBDE8FF87B9F1000F13D145
:102BE000002004EB4401474A02EB8101886004EBBA
:102BF000440102EB81014868FDF76FFD04EB4401DD
:102C0000404A22F82100E6E740F6BA10814501DD8E
:102C1000814604E0B9F5FF7F01DA4FF4FF7942F213
:102C20001070824500DD82464846FDF711FD0546DD
:102C300004EB4400334A02EB800041682846FDF76C
:102C4000AFFD0BD14846FDF711FD07462E4A2F4B2D
:102C5000FDF7E8FB0546FDF754FD8146BAF1140F78
:102C600011DA04EB4401274A22F8219004EB4401D5
:102C700002EB8101A1F802A0002004EB440102EB69
:102C8000810188603BE004EB44011E4A22F8219058
:102C900004EB440102EB8101A1F802A004EB440122
:102CA00002EB81014888FDF7F2FC05460022184B33
:102CB000FDF75FFCCDE9020104EB4401114A32F853
:102CC0002100FDF7CEFC064604EB44000D4A02EB62
:102CD000800041683046FDF76DFB0546FDF730FD8D
:102CE000CDE90001DDE90223FDF743FC0746FDF7CE
:102CF0003AFD04EB4401034A02EB8101886000BF06
:102D000069E7000034150020D200DE02098A7F3F07
:102D10000000344000BF054A128802F04002002A39
:102D2000F9D0C2B2014B1B1D1A8070470038014018
:102D300070B5024600210020002323E0545C542C8F
:102D40001ED14C1C145D303C4FF47A756C438D1CC5
:102D5000555D303D05EBC50606EB051504EB850515
:102D6000CC1C145D303C04EB840405EB44050C1DC5
:102D7000145D303C2B19834200DD1846091D01E02B
:102D8000491C00BF545C002CD8D170BD02680B6890
:102D900003600A607047000008B501210420FEF7B7
:102DA00033FA4FF48070ADF8000048208DF803002E
:102DB00003208DF8020069460548FEF7E7F84FF456
:102DC0000060ADF8000069460148FEF7DFF808BD75
:102DD0000008014010B54FF480713148FEF7AAF9A0
:102DE000E0B930480088401C2E4908802E48007801
:102DF00030B908460088052802DD01202A490870FC
:102E000029480078012818D126480088C82814DDF0
:102E1000022025490870254908700EE022480078F4
:102E2000012802D12149087002E000201F490870E2
:102E300000201D4908701B4908804FF400611848A4
:102E4000FEF778F9E0B91A480088401C1849088054
:102E50001848007830B908460088052802DD0120AE
:102E60001449087013480078012818D110480088C8
:102E7000C82814DD02200F4908700F4908700EE0C1
:102E80000C480078012802D10B49087002E00020AC
:102E9000094908700020074908700549088010BDDD
:102EA00000080140360000203400002032000020DD
:102EB00038000020350000203300002008B5012133
:102EC0000820FEF7A1F94FF40050ADF800001020E3
:102ED0008DF8030003208DF8020069460148FEF7D3
:102EE00055F808BD000C014010B5334800780028A3
:102EF0005DD100F0A9F80021304AD2E90032C31AAE
:102F000061EB02012E4800680022C01A8A4151DAA2
:102F100000F09AF80021294A03C22A48006850B1FB
:102F20002948006838B901202349087027A12A4898
:102F3000FEF7C0FF10BD29480068FFF721FE2848B2
:102F4000006828490968884218DA24480068254939
:102F5000096888420CD12248006820490860194855
:102F6000006820B118480068401E17490860E1E772
:102F70001A480068401C194908601BE0174800689F
:102F80001849096888420CD115480068134908603F
:102F90000C48006820B10C480068401E0A490860CF
:102FA000C8E70E480068401E0C49086002E00A208D
:102FB0000349086000BFBDE75000002070000020FA
:102FC0006800002064000020580000204047726F15
:102FD0007570446F6E652100003801405400002078
:102FE0005C00002060000020FEF794FA00F0A4FDD1
:102FF000FEF728FBFFF73CFCFFF720FDFFF740FD45
:1030000000F0E4FF01F0D8F8044622460CA10D4878
:10301000FEF750FF00F0FAFE472144F62060FEF76D
:10302000C5FBFFF7D7FC09E0FFF7B2FCFFF734FC64
:10303000FFF742FDFFF758FFFFF7D0FCF4E7000071
:103040002578000000380140014800687047000002
:10305000280000202DE9FC5F04460026204601F0F0
:10306000DDF9207823287DD120795028FBD16079A3
:103070005328F8D1A0794328F5D1E0794B2871D1B4
:10308000207B21286ED16078303864214843A178B4
:10309000303901EB810100EB4101E0783038084420
:1030A00085B2607A303864214843A17A303901EB27
:1030B000810100EB4101E07A30380F1817F5FA7FF3
:1030C00063DBB7F5FA7F60DC082D5EDA207A2B2807
:1030D00020D13846FDF7BCFA8E49019051F8250001
:1030E000FDF7B6FA009005EB45008B4A02EB800035
:1030F00041680098FDF761F983460199FDF708F9E9
:1031000005EB4501844A02EB81014860814840F8A3
:10311000257023E0207A2D2820D13846FDF798FA33
:103120007C49019051F82500FDF792FA009005EBDB
:103130004500794A02EB800041680098FDF73DF9AF
:1031400083460199FDF736F905EB4501724A02EB1A
:103150008101486079426F4840F8251005EB450130
:103160006D4A00E012E002EB81014868FDF7B5FA14
:1031700005EB4501684A22F82100684805EB450146
:1031800002EB8101886000F013FD52E020782328D3
:103190004FD1207950284CD16079442849D1A07969
:1031A000532846D1E079542843D1207A212840D1B0
:1031B0006078303864214843A178303901EB8101CF
:1031C00000EB4101E0783038084485B2082D13DA6D
:1031D000002005EB4501504A02EB8101886005EBB8
:1031E000450102EB81014868FDF777FA05EB4501DF
:1031F000494A22F821001AE0FF2D18D1002514E0D9
:10320000002005EB4501444A02EB8101886005EB93
:10321000450102EB81014868FDF75FFA05EB4501C6
:103220003D4A22F82100681C85B2082DE8DBBDE884
:10323000FC9F2046FCF79AFF804664E0A05D2328AF
:1032400013D10025701C86B208E0A05D05EB850156
:1032500000EB4100303885B2701C86B2A05D0028BA
:1032600051D0A05D50284ED0EFE7A05D50281DD171
:103270004FF0000A701C86B212E0A05DFDF7F1F974
:10328000274901905046FDF79BF800900199FDF702
:103290003FF883462349FDF78DF88246701C86B2BD
:1032A000A05D68B3A05D54282DD0E6E7A05D54284A
:1032B00027D14FF00009701C86B209E0A05D09EB30
:1032C000890100EB410030381FFA80F9701C86B28A
:1032D000A05D10B1A05D2128F0D10E4951F8250064
:1032E000FDF7B6F983465146FDF712F8824650467F
:1032F000FDF7DAF98346E8B24A465946FFF764FC1F
:1033000001E0701C86B2A05D10B1B8F1010F95DA32
:1033100000BF8CE72C1A0020341500206F12833A6E
:1033200000002041000040422DE9F14F86B0A0A1ED
:10333000069801F03FF88346BBF1000F04D09EA130
:10334000A148FEF7B7FD2FE1A0A1069801F032F8E1
:103350008346BBF1000F21D001209E4908704FF039
:10336000000A14E000200AEB4A019B4A02EB8101AB
:1033700088600AEB4A0102EB81014868FDF7ADF96C
:103380000AEB4A01944A22F821000AF1010ABAF133
:10339000080FE7DB91A001F041F805E192A1069842
:1033A00001F008F88346BBF1000F2AD004AA90A1CF
:1033B0000698FCF7EBFE0028C5D00020049901EB2D
:1033C0004101854A02EB81018860049901EB4101CA
:1033D00002EB81014868FDF780F9049901EB410196
:1033E0007D4A22F8210085A18848049AFEF7A4FDB1
:1033F000864801F013F84FF480618448FCF7ABFE77
:10340000D2E083A1069800F0D5FF8346BBF1000F00
:1034100001D000F08FFD80A1069800F0CBFF83461D
:10342000BBF1000F0CD002AB03AA7DA10698FCF7FC
:10343000ADFE002887D0DDE9021000F08BFAB3E082
:103440007AA1069800F0B6FF8346BBF1000F0DD0BD
:1034500003AA78A10698FCF799FE00289DD00120C8
:103460005C4908700398FFF78BFB9DE074A10698F8
:1034700000F0A0FF8346BBF1000F23D07248734BCE
:10348000734A74A100900698FCF780FE002884D04F
:103490000120504908706E4800686C4909688842EC
:1034A0000BD06B4800686F490860674800686E4938
:1034B000086000204749087076E065480068FFF71B
:1034C0005FFB71E069A1069800F074FF8346BBF1D1
:1034D000000F50D067A000F0A1FFFF206A490870DC
:1034E0004FF0000A43E0694830F82A0000F2DC504F
:1034F0000AEB4A01384A22F821004FF4FA600AEB3D
:103500004A0102EB810148800AEB4A0102EB81018A
:103510004888FDF7BCF8064600225D4BFDF729F808
:1035200004460D460AEB4A012B4A32F82100FDF70A
:1035300098F807460AEB4A00274A02EB80004168E8
:103540003846FCF737FF0646FDF7FAF822462B46C9
:10355000CDE90001FDF70DF88046FDF704F90AEB0F
:103560004A011D4A02EB810188600AF1010ABAF1A1
:10357000080FB8DB18E047A1069800F01BFF834650
:10358000BBF1000F04D045A10F48FEF793FC0BE000
:1035900043A1069800F00EFF8346BBF1000F03D055
:1035A00064210120FFF7D2FA07B0BDE8F08F0000D8
:1035B000244452532100000068656C6C6F20776FC3
:1035C000726C64A3A10000000038014024445354ED
:1035D0002100000050000020341500203235355005
:1035E0004453542100000000244453543A00000086
:1035F000244453543A25642100000000232530332D
:103600006450445354210D0A00000000A01500200E
:103610002452535421000000245054473A00000023
:10362000245054473A25642D2564210024444753EF
:103630003A000000244447533A256421000000006A
:10364000244447543A000000640000206000002039
:103650005C000020244447543A25642D25642C2521
:1036600064210000540000205800002024444A52E5
:10367000210000002332353550313530305432309E
:103680003030210D0A000000510000202C1A0020CB
:10369000000034402447455441210000414141008D
:1036A00024424545502100002DE9F04107460E46D1
:1036B00000257878397800EB0120984908809848EF
:1036C0000088098888426ED094480088954908800F
:1036D000924800889249098808409049088000244F
:1036E00008E10120A0408D490988084000287DD1CB
:1036F0000120A0408A490988084000287FD04FF463
:1037000080618948FCF727FD732E0DD1874951F858
:103710002400FCF72BFD8046844850F824104246D4
:103720008148FCF7FFFC10E0412E0DD1804951F893
:103730002400FCF71BFD80467D4850F824104246CB
:103740007948FCF7EFFC00E0D2E07AA1764800F07F
:1037500031FEC5B21DB10021681E734A115476A115
:10376000714800F027FEF8B1002240F2255173485D
:10377000FEF73BFA0020724908806B490B31714813
:10378000FCF7FBFC6F496848FCF7F7FC01206C492B
:103790000880012240F225516848FEF726FA0120F0
:1037A0006949087026E0B7E068A15F4800F002FEB2
:1037B00000B3002240F225516048FEF716FA0020BF
:1037C0005F49088058490B315E48FCF7D6FC5D49DB
:1037D0005548FCF7D2FC012059490880012240F2EB
:1037E00025515648FEF701FA022001E07FE006E08D
:1037F000554908704FF6FF704949088077E04FF44B
:1038000080614948FCF7A7FC732E0DD1474951F858
:103810002400FCF7ABFC8046444850F82410424694
:103820004148FCF77FFC10E0412E0DD1404951F892
:103830002400FCF79BFC80463D4850F8241042468B
:103840003948FCF76FFC00E052E03AA1364800F03E
:10385000B1FDC5B2002D4AD03349481936A100F058
:10386000A9FDE8B1002240F225513448FEF7BDF928
:103870000020334908802C4841193248FCF77DFC70
:103880003048FCF773FC401E2E4900220A5426489B
:10389000FCF773FC01202A4908802B49087022E0BC
:1038A0002AA1214800F086FDE8B1002240F225510E
:1038B0002248FEF79AF90020214908801A48411948
:1038C0002048FCF75AFC1F48FCF750FC401E1D49DD
:1038D00000220A541448FCF750FC012018490880C3
:1038E00002201949087010491448FEF707FB00BF71
:1038F000601CC4B2102CFFF6F4AE0A4800880849D8
:10390000088020211248FDF729FC0A20FDF711FB51
:1039100020210F48FDF720FCBDE8F08102010020C6
:1039200000010020040100200C010020780000208C
:10393000B80000205E0000002400000000380140B4
:103940003A000020A01500203C00002023000000C9
:10395000000C014013B5012000F092FB0A20FDF796
:10396000E8FADDE90001884203DD01A96846FFF7B6
:103970000DFA16E04FF480610E48FCF7ECFB00985E
:1039800001024FF480720B4800F0AAFB09490A4873
:10399000FEF7B4FA09A10848FEF7B0FA0098401CF7
:1039A0000090DDE900018842E4DD002000F068FBC2
:1039B0001CBD00000C010020003801400D0A000071
:1039C00008B501210420FDF71FFC4FF40040ADF8BD
:1039D000000028208DF8030003208DF802006946BE
:1039E0001848FDF7D3FA4FF48040ADF800001020DE
:1039F0008DF8030003208DF8020069461148FDF799
:103A0000C5FA4FF40050ADF8000069460D48FDF7C7
:103A1000BDFA4FF48050ADF8000069460948FDF743
:103A2000B5FA012251030748FDF79AFB0122110361
:103A30000448FDF795FB012291030248FDF790FB36
:103A400008BD0000000801402DE9F04105462F4661
:103A5000002600242AE00120A04000EA07024FF4DB
:103A600080411548FDF77CFB012211031248FDF748
:103A700077FB0620FDF771FA00224FF480510E48C3
:103A8000FDF76EFB0620FDF768FA012211030A48D4
:103A9000FDF766FB4FF400410748FDF74BFB18B1FB
:103AA0000120A0403043C6B2601CC4B2082CD2DB57
:103AB0003046BDE8F08100000008014010B500224A
:103AC0004FF400511A48FDF74BFB0120FFF7BCFFF4
:103AD000184908704220FFF7B7FF16494870087868
:103AE000FFF7B2FF134988700878FFF7ADFF11495F
:103AF000C8700878FFF7A8FF0E4908710878FFF72B
:103B0000A3FF0C4948710878FFF79EFF09498871A7
:103B10000878FFF799FF0749C8710878FFF794FF05
:103B200004490872012251030148FDF719FB10BD39
:103B3000000801409415002010B5FDF775FB4FF407
:103B40008030FDF733FCFDF78FFC044600BF002CEE
:103B5000FDD00020FDF71EFC4FF48060FDF74CFC0B
:103B60000020FDF755FC4FF4E0114FF48030FDF7D5
:103B700061FC0120FDF758FC00BF3920FDF7E4FB94
:103B80000028FAD00220FDF7F5F90220FDF760FCCD
:103B900000BFFDF7F7FB0828FBD110BD04E0037858
:103BA0008B4200D10270401C0378002BF7D1704784
:103BB00010B5012000F064FA0A20FDF7BAF940F2CE
:103BC000FF7000F0DDF9B0220349044800F05CFB0F
:103BD000002000F055FA10BD00F07F00A019002071
:103BE00070B50446002501204449087000F048FAE9
:103BF0000A20FDF79EF9607824280CD1A0782128AE
:103C000009D100213E4880F88810FFF7D1FF3DA080
:103C100000F004FC70BD607824281FD18121384851
:103C20000830FCF798FA611C35480830FCF7A5FA13
:103C30002046FCF79BFA801E3149083100220A54C5
:103C400025212F4880F88810FFF7B2FF32A000F03E
:103C5000E5FB2B48083000F0E1FBDBE7A0783038CB
:103C60004FF47A714843E178303901EBC10202EB3D
:103C7000011100EB81012079303800EB800001EB6D
:103C80004001607930380D18681C10B1A0792328E4
:103C900004D026A12648FEF70DF9BBE72802C1177C
:103CA00000EB11510913A0EB013131B92E02F117CC
:103CB00006EB1151081300F063F97B223C212046EA
:103CC000FFF76CFF7D223E212046FFF767FF20466D
:103CD000FCF74CFA401C86B229023246204600F01E
:103CE000D3FA14A11248FEF709F912A11248FEF7FF
:103CF00005F9002000F0C4F900BF8BE75000002058
:103D0000A019002040434C454152205052455F438A
:103D10004D44204F4B210000405345542050524504
:103D20005F434D44204F4B21000000004500000040
:103D30000038014041000000004800402DE9F041FA
:103D4000044604EB4401304A02EB810188680021FB
:103D5000FCF726FD55D004EB44002B4931F82050E8
:103D600040F6BA10854201DD054604E0B5F5FA7F5C
:103D700001DA4FF4FA7504EB4402234B03EB8202A1
:103D8000916804EB440203EB82029068FCF7C0FAEE
:103D90008046FEF760FD06462846FCF759FC804643
:103DA00004EB4400184A02EB800041684046FCF7EF
:103DB00001FB07463146FCF7F3FC0FD82846FCF719
:103DC00047FC04EB4401104A02EB810148600020EB
:103DD00004EB440102EB8101886012E004EB440231
:103DE000094B03EB8202916804EB440203EB82026D
:103DF0005068FCF78DFA04EB4401034A02EB8101A1
:103E00004860BDE8F08100003415002038B501217C
:103E10000820FDF7F9F90820ADF8000003208DF81F
:103E2000020010208DF8030069462448FDF7AEF823
:103E30004FF48070ADF8000069462048FDF7A6F801
:103E40004FF40070ADF8000069461C48FDF79EF87D
:103E50004020ADF8000069461848FDF797F880202B
:103E6000ADF8000069461548FDF790F81020ADF850
:103E7000000069461148FDF789F800241BE040F274
:103E8000DC5004EB44010E4A22F821000D4804EBFB
:103E9000440102EB81014860002004EB440102EB85
:103EA0008101886041F2883004EB440102EB81011A
:103EB0004880601CC4B2082CE1DB38BD000C014016
:103EC000341500200080BB4470B504460D46062C16
:103ED0002AD2DFE804F0030910171D232A4608211F
:103EE0001348FDF73DF920E02A464FF48071104851
:103EF000FDF736F919E02A464FF400710C48FDF73A
:103F00002FF912E02A4640210948FDF729F90CE073
:103F10002A4680210648FDF723F906E02A461021AB
:103F20000348FDF71DF900E000BF00BF70BD0000B1
:103F3000000C01400BA10F48FDF7BCFF012080F3EE
:103F4000138800BF00BF0C48006800F4E0600B4914
:103F50000843001D08490860BFF34F8F00BF00BF32
:103F6000FEE7000073746D33322072657365740D63
:103F70000A000000003801400CED00E00000FA05E6
:103F800010B50446240300F06DF900F03BF900225F
:103F90004FF480510C48FDF7E3F8202000F0E0F9E1
:103FA000C4F3074000F0DCF9C4F3072000F0D8F9AF
:103FB000E0B200F0D5F9012211030348FDF7D0F873
:103FC00000F020F910BD0000000C014010B50121E7
:103FD0008803FDF709F901210820FDF715F94FF4D1
:103FE0008050234908801020C87003208870214821
:103FF000FCF7CCFF4FF480511E48FDF7AFF84FF4AB
:1040000020401B4908801820C8701A48FCF7BEFFE2
:104010004FF48040164908804820C8701548FCF7C6
:10402000B5FF4FF420411348FDF798F800201249DE
:1040300008804FF482704880002088800220C88069
:104040000120088140024881382088810020C881F1
:10405000072008820948FDF73DFA01210748FDF7CE
:104060001FFAFF2000F07CF9002000F067F910BD76
:1040700042000020000C01402005002000380040D4
:1040800010B50446ACB14FF4005012490880182016
:10409000C8701148FCF77AFF4FF400510E48FDF745
:1040A0005DF801210D48FDF7FBF9FF2000F058F9FC
:1040B0000EE000210948FDF7F3F94FF400500549DF
:1040C00008801020C870032088700348FCF75EFF4A
:1040D00010BD000042000020000C014000380040EC
:1040E0002DE9F04106460C46174600224FF4805158
:1040F0001048FDF735F8032000F032F9C4F307400B
:1041000000F02EF9C4F3072000F02AF9E0B200F025
:1041100027F9002505E0FF2000F022F97055681C02
:1041200085B2BD42F7DB012211030248FDF718F802
:10413000BDE8F081000C014010B5002400224FF4CE
:1041400080510848FDF70CF8052000F009F9FF2020
:1041500000F006F90446012211030248FDF700F8B9
:10416000204610BD000C014010B5044600224FF45B
:1041700080510F48FCF7F4FF032000F0F1F8C4F37E
:10418000074000F0EDF8C4F3072000F0E9F8E0B2D2
:1041900000F0E6F8FF2000F0E3F80649087001227D
:1041A00011030348FCF7DCFF0248007810BD000053
:1041B000000C01404600002010B5002400224FF4FE
:1041C00080510F48FCF7CCFF902000F0C9F8002088
:1041D00000F0C6F8002000F0C3F8002000F0C0F89E
:1041E000FF2000F0BDF844EA0024FF2000F0B8F8FA
:1041F0000443012211030248FCF7B2FF204610BD20
:10420000000C014010B500BFFFF796FF00F0010061
:104210000028F9D110BD000070B505460C4600F02D
:1042200021F800224FF480510D48FCF799FF02203D
:1042300000F096F8C4F3074000F092F8C4F30720AA
:1042400000F08EF8E0B200F08BF8284600F088F815
:10425000012211030248FCF783FFFFF7D3FF70BD73
:10426000000C014010B500224FF480510548FCF7C6
:1042700077FF062000F074F8012211030148FCF7D3
:104280006FFF10BD000C01402DE9F04107460E46BE
:104290001446F0B2C0F58075AC4200DC254612E051
:1042A0002A463146384600F013F8AC4200D10BE004
:1042B0002F442E44601B84B2B4F5807F02DD4FF49E
:1042C000807500E02546EBE700BFBDE8F081000007
:1042D0002DE9F04107460C461646E0B2C0F580785D
:1042E000464500DD4646FFF7BDFF00224FF48051F2
:1042F0001148FCF735FF022000F032F8C4F3074004
:1043000000F02EF8C4F3072000F02AF8E0B200F025
:1043100027F8002504E0785D00F022F8681C85B2DB
:10432000B542F8DB012211030348FCF719FFFFF740
:1043300069FFBDE8F0810000000C014010B50446A3
:104340000548848101460548FDF7C4F8012103486A
:10435000FDF7A6F810BD0000200500200030014048
:1043600070B50546002405E0601CC4B2C82C01DD10
:10437000002070BD02210E48FDF79EF80028F3D002
:1043800029460B48FDF7A4F8002405E0601CC4B2E0
:10439000C82C01DD0020ECE701210548FDF78CF871
:1043A0000028F3D00248FDF790F8C0B2E1E7000022
:1043B0000038004070B504460B4621461A4619E005
:1043C00008781578A84214D10AE011F8015B12F8B8
:1043D000016BB54204D0D01A081A411C1A4602E0FB
:1043E00010780028F1D100BF107818B9081B80B2EE
:1043F00070BD491C08780028E2D100BFF8E770B50D
:1044000004460D4629462046FDF785FC00BF802165
:104410002046FDF7DDFB0028F9D070BD10B504463D
:1044200001200749088021460648FDF767FD21461F
:104430000548FDF763FD00200149088010BD00001C
:104440003A0000200038014000480040DDDDDDDD9D
:10445000DCBBBBDDDDDDDDDDDDDDDDDD9888888815
:1044600088888888777777777788888885555556BC
:104470006666666666666666666888888333333213
:1044800022222222222222222228888D3C505332AC
:104490005F52454430333A244443523A302C313051
:1044A00030302C313030302C30215E244443523AAD
:1044B000302C302C302C30213E0000003C50533248
:1044C0005F52454430313A244443523A302C35301F
:1044D000302C3530302C30215E244443523A302C7D
:1044E000302C302C30213E003C5053325F5245443A
:1044F00030343A244443523A313030302C302C306E
:104500002C31303030215E244443523A302C302C50
:10451000302C30213E0000003C5053325F52454465
:1045200030353A244443523A313030302C31303037
:10453000302C313030302C31303030215E24444347
:10454000523A302C302C302C30213E003C5053322B
:104550005F52454430363A244443523A3130303089
:104560002C2D313030302C2D313030302C3130305A
:1045700030215E244443523A302C302C302C3021F0
:104580003E0000003C5053325F52454430383A24DC
:104590004443523A2D313030302C313030302C31D0
:1045A0003030302C2D31303030215E244443523AAB
:1045B000302C302C302C30213E0000003C50533247
:1045C0005F52454430373A244443523A2D3130301B
:1045D000302C2D313030302C2D313030302C2D31ED
:1045E000303030215E244443523A302C302C302C71
:1045F00030213E003C5053325F52454430323A2421
:104600004443523A3530302C302C302C3530302168
:104610005E244443523A302C302C302C30213E0062
:104620003C5053325F52454431363A244443523A67
:104630002D3530302C3530302C3530302C35303075
:10464000215E244443523A302C302C302C30213E11
:10465000000000003C5053325F52454431333A244D
:104660004443523A3530302C3530302C2D353030F3
:104670002C353030215E244443523A302C302C30DB
:104680002C30213E000000003C5053325F52454424
:1046900031353A244443523A2D3530302C2D3530C3
:1046A000302C3530302C2D353030215E24444352AF
:1046B0003A302C302C302C30213E00003C5053320C
:1046C0005F52454431343A244443523A3530302C19
:1046D0002D3530302C2D3530302C2D353030215EBD
:1046E000244443523A302C302C302C30213E0000F0
:1046F0003C5053325F52454431323A24444A5221AD
:104700003E0000003C5053325F52454430393A2459
:10471000444A52213E0000003C5053325F5245440F
:1047200031363A2330303050323430305432303039
:1047300030215E2330303050445354213E0000007D
:104740003C5053325F52454431343A23303030507C
:10475000303630305432303030215E2330303050FB
:10476000445354213E0000003C5053325F524544B4
:1047700031353A23303031503234303054323030E9
:1047800030215E2330303150445354213E0000002C
:104790003C5053325F52454431333A23303031502C
:1047A000303630305432303030215E2330303150AA
:1047B000445354213E0000003C5053325F52454464
:1047C00030353A2330303250323430305432303099
:1047D00030215E2330303250445354213E000000DB
:1047E0003C5053325F52454430373A2330303250D8
:1047F000303630305432303030215E233030325059
:10480000445354213E0000003C5053325F52454413
:1048100030383A2330303350323430305432303044
:1048200030215E2330303350445354213E00000089
:104830003C5053325F52454430363A233030335087
:10484000303630305432303030215E233030335007
:10485000445354213E0000003C5053325F524544C3
:1048600030343A23303034503234303054323030F7
:1048700030215E2330303450445354213E00000038
:104880003C5053325F52454430333A233030345039
:10489000303630305432303030215E2330303450B6
:1048A000445354213E0000003C5053325F52454473
:1048B00030323A23303035503234303054323030A8
:1048C00030215E2330303550445354213E000000E7
:1048D0003C5053325F52454430313A2330303550EA
:1048E000303630305432303030215E233030355065
:1048F000445354213E0000003C5053325F52454423
:1049000031303A3E000000003C5053325F52454483
:1049100031313A3E00000000384900080000002014
:104920000C010000841F0008444A00080C0100200C
:1049300044210000941F000800A24A040000000067
:10494000000000000102030406070809000000003F
:104950000102030401020304060708090204060811
:104960000000000000000000000000000000000047
:104970000000000000000000000000000000000037
:10498000000000000000000001FF00000000000027
:104990000000000000000000000000000000000017
:1049A0000000000000000000000000000000000007
:1049B000D0480008A8480008804800085848000867
:1049C000B847000830480008E047000808480008D9
:1049D00004470008F848000808490008F0460008A5
:1049E000904700084047000868470008184700083B
:1049F000BC440008F44500088C440008E844000862
:104A0000184500084C450008BC45000884450008CE
:104A100004470008F848000808490008F046000864
:104A200054460008BC460008884600082046000896
:104A30000000000000000000FFFF00000000000078
:044A40000000000072
:04000005080000ED02
:00000001FF
